{
  "contractName": "DecentralBank",
  "abi": [
    {
      "inputs": [
        {
          "internalType": "contract RWD",
          "name": "_rwd",
          "type": "address"
        },
        {
          "internalType": "contract Tether",
          "name": "_tether",
          "type": "address"
        }
      ],
      "stateMutability": "nonpayable",
      "type": "constructor"
    },
    {
      "inputs": [
        {
          "internalType": "address",
          "name": "",
          "type": "address"
        }
      ],
      "name": "hasStaked",
      "outputs": [
        {
          "internalType": "bool",
          "name": "",
          "type": "bool"
        }
      ],
      "stateMutability": "view",
      "type": "function",
      "constant": true
    },
    {
      "inputs": [
        {
          "internalType": "address",
          "name": "",
          "type": "address"
        }
      ],
      "name": "isStaked",
      "outputs": [
        {
          "internalType": "bool",
          "name": "",
          "type": "bool"
        }
      ],
      "stateMutability": "view",
      "type": "function",
      "constant": true
    },
    {
      "inputs": [],
      "name": "name",
      "outputs": [
        {
          "internalType": "string",
          "name": "",
          "type": "string"
        }
      ],
      "stateMutability": "view",
      "type": "function",
      "constant": true
    },
    {
      "inputs": [],
      "name": "owner",
      "outputs": [
        {
          "internalType": "address",
          "name": "",
          "type": "address"
        }
      ],
      "stateMutability": "view",
      "type": "function",
      "constant": true
    },
    {
      "inputs": [],
      "name": "rwd",
      "outputs": [
        {
          "internalType": "contract RWD",
          "name": "",
          "type": "address"
        }
      ],
      "stateMutability": "view",
      "type": "function",
      "constant": true
    },
    {
      "inputs": [
        {
          "internalType": "uint256",
          "name": "",
          "type": "uint256"
        }
      ],
      "name": "stakers",
      "outputs": [
        {
          "internalType": "address",
          "name": "",
          "type": "address"
        }
      ],
      "stateMutability": "view",
      "type": "function",
      "constant": true
    },
    {
      "inputs": [
        {
          "internalType": "address",
          "name": "",
          "type": "address"
        }
      ],
      "name": "stakingBalance",
      "outputs": [
        {
          "internalType": "uint256",
          "name": "",
          "type": "uint256"
        }
      ],
      "stateMutability": "view",
      "type": "function",
      "constant": true
    },
    {
      "inputs": [],
      "name": "tether",
      "outputs": [
        {
          "internalType": "contract Tether",
          "name": "",
          "type": "address"
        }
      ],
      "stateMutability": "view",
      "type": "function",
      "constant": true
    },
    {
      "inputs": [
        {
          "internalType": "uint256",
          "name": "_amount",
          "type": "uint256"
        }
      ],
      "name": "depositTokens",
      "outputs": [],
      "stateMutability": "nonpayable",
      "type": "function"
    },
    {
      "inputs": [],
      "name": "unstakeTokens",
      "outputs": [],
      "stateMutability": "nonpayable",
      "type": "function"
    },
    {
      "inputs": [],
      "name": "issueTokens",
      "outputs": [],
      "stateMutability": "nonpayable",
      "type": "function"
    }
  ],
  "bytecode": "0x60806040526040518060400160405280600e81526020017f446563656e7472616c2042616e6b00000000000000000000000000000000000081525060019080519060200190620000519291906200014f565b503480156200005f57600080fd5b50604051620014903803806200149083398181016040528101906200008591906200022d565b81600360006101000a81548173ffffffffffffffffffffffffffffffffffffffff021916908373ffffffffffffffffffffffffffffffffffffffff16021790555080600260006101000a81548173ffffffffffffffffffffffffffffffffffffffff021916908373ffffffffffffffffffffffffffffffffffffffff160217905550336000806101000a81548173ffffffffffffffffffffffffffffffffffffffff021916908373ffffffffffffffffffffffffffffffffffffffff160217905550505062000363565b8280546200015d90620002ca565b90600052602060002090601f016020900481019282620001815760008555620001cd565b82601f106200019c57805160ff1916838001178555620001cd565b82800160010185558215620001cd579182015b82811115620001cc578251825591602001919060010190620001af565b5b509050620001dc9190620001e0565b5090565b5b80821115620001fb576000816000905550600101620001e1565b5090565b60008151905062000210816200032f565b92915050565b600081519050620002278162000349565b92915050565b600080604083850312156200024157600080fd5b60006200025185828601620001ff565b9250506020620002648582860162000216565b9150509250929050565b60006200027b82620002aa565b9050919050565b60006200028f826200026e565b9050919050565b6000620002a3826200026e565b9050919050565b600073ffffffffffffffffffffffffffffffffffffffff82169050919050565b60006002820490506001821680620002e357607f821691505b60208210811415620002fa57620002f962000300565b5b50919050565b7f4e487b7100000000000000000000000000000000000000000000000000000000600052602260045260246000fd5b6200033a8162000282565b81146200034657600080fd5b50565b620003548162000296565b81146200036057600080fd5b50565b61111d80620003736000396000f3fe608060405234801561001057600080fd5b50600436106100a95760003560e01c80636177fd18116100715780636177fd18146101425780638da5cb5b14610172578063a5ce413b14610190578063c93c8f341461019a578063dd49756e146101ca578063fd5e6dd1146101e6576100a9565b806306fdde03146100ae5780631a8972d3146100cc57806345bc78ab146100ea5780635efc071a1461011a57806360ab585214610138575b600080fd5b6100b6610216565b6040516100c39190610d86565b60405180910390f35b6100d46102a4565b6040516100e19190610d50565b60405180910390f35b61010460048036038101906100ff9190610ad5565b6102ca565b6040516101119190610e08565b60405180910390f35b6101226102e2565b60405161012f9190610d6b565b60405180910390f35b610140610308565b005b61015c60048036038101906101579190610ad5565b610531565b6040516101699190610d35565b60405180910390f35b61017a610551565b6040516101879190610cba565b60405180910390f35b610198610575565b005b6101b460048036038101906101af9190610ad5565b61074c565b6040516101c19190610d35565b60405180910390f35b6101e460048036038101906101df9190610b27565b61076c565b005b61020060048036038101906101fb9190610b27565b610a57565b60405161020d9190610cba565b60405180910390f35b6001805461022390610f89565b80601f016020809104026020016040519081016040528092919081815260200182805461024f90610f89565b801561029c5780601f106102715761010080835404028352916020019161029c565b820191906000526020600020905b81548152906001019060200180831161027f57829003601f168201915b505050505081565b600360009054906101000a900473ffffffffffffffffffffffffffffffffffffffff1681565b60056020528060005260406000206000915090505481565b600260009054906101000a900473ffffffffffffffffffffffffffffffffffffffff1681565b60008054906101000a900473ffffffffffffffffffffffffffffffffffffffff1673ffffffffffffffffffffffffffffffffffffffff163373ffffffffffffffffffffffffffffffffffffffff1614610396576040517f08c379a000000000000000000000000000000000000000000000000000000000815260040161038d90610da8565b60405180910390fd5b60005b60048054905081101561052e576000600482815481106103e2577f4e487b7100000000000000000000000000000000000000000000000000000000600052603260045260246000fd5b9060005260206000200160009054906101000a900473ffffffffffffffffffffffffffffffffffffffff16905060006009600560008473ffffffffffffffffffffffffffffffffffffffff1673ffffffffffffffffffffffffffffffffffffffff1681526020019081526020016000205461045d9190610e95565b9050600081111561051957600360009054906101000a900473ffffffffffffffffffffffffffffffffffffffff1673ffffffffffffffffffffffffffffffffffffffff1663a9059cbb83836040518363ffffffff1660e01b81526004016104c5929190610d0c565b602060405180830381600087803b1580156104df57600080fd5b505af11580156104f3573d6000803e3d6000fd5b505050506040513d601f19601f820116820180604052508101906105179190610afe565b505b5050808061052690610fbb565b915050610399565b50565b60076020528060005260406000206000915054906101000a900460ff1681565b60008054906101000a900473ffffffffffffffffffffffffffffffffffffffff1681565b6000600560003373ffffffffffffffffffffffffffffffffffffffff1673ffffffffffffffffffffffffffffffffffffffff168152602001908152602001600020549050600081116105fc576040517f08c379a00000000000000000000000000000000000000000000000000000000081526004016105f390610dc8565b60405180910390fd5b600260009054906101000a900473ffffffffffffffffffffffffffffffffffffffff1673ffffffffffffffffffffffffffffffffffffffff1663a9059cbb33836040518363ffffffff1660e01b8152600401610659929190610d0c565b602060405180830381600087803b15801561067357600080fd5b505af1158015610687573d6000803e3d6000fd5b505050506040513d601f19601f820116820180604052508101906106ab9190610afe565b506000600560003373ffffffffffffffffffffffffffffffffffffffff1673ffffffffffffffffffffffffffffffffffffffff168152602001908152602001600020819055506000600760003373ffffffffffffffffffffffffffffffffffffffff1673ffffffffffffffffffffffffffffffffffffffff16815260200190815260200160002060006101000a81548160ff02191690831515021790555050565b60066020528060005260406000206000915054906101000a900460ff1681565b600081116107af576040517f08c379a00000000000000000000000000000000000000000000000000000000081526004016107a690610de8565b60405180910390fd5b600260009054906101000a900473ffffffffffffffffffffffffffffffffffffffff1673ffffffffffffffffffffffffffffffffffffffff166323b872dd3330846040518463ffffffff1660e01b815260040161080e93929190610cd5565b602060405180830381600087803b15801561082857600080fd5b505af115801561083c573d6000803e3d6000fd5b505050506040513d601f19601f820116820180604052508101906108609190610afe565b5080600560003373ffffffffffffffffffffffffffffffffffffffff1673ffffffffffffffffffffffffffffffffffffffff168152602001908152602001600020546108ac9190610e3f565b600560003373ffffffffffffffffffffffffffffffffffffffff1673ffffffffffffffffffffffffffffffffffffffff16815260200190815260200160002081905550600660003373ffffffffffffffffffffffffffffffffffffffff1673ffffffffffffffffffffffffffffffffffffffff16815260200190815260200160002060009054906101000a900460ff166109a4576004339080600181540180825580915050600190039060005260206000200160009091909190916101000a81548173ffffffffffffffffffffffffffffffffffffffff021916908373ffffffffffffffffffffffffffffffffffffffff1602179055505b6001600760003373ffffffffffffffffffffffffffffffffffffffff1673ffffffffffffffffffffffffffffffffffffffff16815260200190815260200160002060006101000a81548160ff0219169083151502179055506001600660003373ffffffffffffffffffffffffffffffffffffffff1673ffffffffffffffffffffffffffffffffffffffff16815260200190815260200160002060006101000a81548160ff02191690831515021790555050565b60048181548110610a6757600080fd5b906000526020600020016000915054906101000a900473ffffffffffffffffffffffffffffffffffffffff1681565b600081359050610aa5816110a2565b92915050565b600081519050610aba816110b9565b92915050565b600081359050610acf816110d0565b92915050565b600060208284031215610ae757600080fd5b6000610af584828501610a96565b91505092915050565b600060208284031215610b1057600080fd5b6000610b1e84828501610aab565b91505092915050565b600060208284031215610b3957600080fd5b6000610b4784828501610ac0565b91505092915050565b610b5981610ec6565b82525050565b610b6881610ed8565b82525050565b610b7781610f0e565b82525050565b610b8681610f32565b82525050565b6000610b9782610e23565b610ba18185610e2e565b9350610bb1818560208601610f56565b610bba81611091565b840191505092915050565b6000610bd2601883610e2e565b91507f43616c6c6572206d75737420626520746865206f776e657200000000000000006000830152602082019050919050565b6000610c12602683610e2e565b91507f7374616b696e672062616c616e63652063616e74206265206c6573732074686560008301527f6e207a65726f00000000000000000000000000000000000000000000000000006020830152604082019050919050565b6000610c78601283610e2e565b91507f616d6f756e742063616e6e6f74206265203000000000000000000000000000006000830152602082019050919050565b610cb481610f04565b82525050565b6000602082019050610ccf6000830184610b50565b92915050565b6000606082019050610cea6000830186610b50565b610cf76020830185610b50565b610d046040830184610cab565b949350505050565b6000604082019050610d216000830185610b50565b610d2e6020830184610cab565b9392505050565b6000602082019050610d4a6000830184610b5f565b92915050565b6000602082019050610d656000830184610b6e565b92915050565b6000602082019050610d806000830184610b7d565b92915050565b60006020820190508181036000830152610da08184610b8c565b905092915050565b60006020820190508181036000830152610dc181610bc5565b9050919050565b60006020820190508181036000830152610de181610c05565b9050919050565b60006020820190508181036000830152610e0181610c6b565b9050919050565b6000602082019050610e1d6000830184610cab565b92915050565b600081519050919050565b600082825260208201905092915050565b6000610e4a82610f04565b9150610e5583610f04565b9250827fffffffffffffffffffffffffffffffffffffffffffffffffffffffffffffffff03821115610e8a57610e89611004565b5b828201905092915050565b6000610ea082610f04565b9150610eab83610f04565b925082610ebb57610eba611033565b5b828204905092915050565b6000610ed182610ee4565b9050919050565b60008115159050919050565b600073ffffffffffffffffffffffffffffffffffffffff82169050919050565b6000819050919050565b6000610f1982610f20565b9050919050565b6000610f2b82610ee4565b9050919050565b6000610f3d82610f44565b9050919050565b6000610f4f82610ee4565b9050919050565b60005b83811015610f74578082015181840152602081019050610f59565b83811115610f83576000848401525b50505050565b60006002820490506001821680610fa157607f821691505b60208210811415610fb557610fb4611062565b5b50919050565b6000610fc682610f04565b91507fffffffffffffffffffffffffffffffffffffffffffffffffffffffffffffffff821415610ff957610ff8611004565b5b600182019050919050565b7f4e487b7100000000000000000000000000000000000000000000000000000000600052601160045260246000fd5b7f4e487b7100000000000000000000000000000000000000000000000000000000600052601260045260246000fd5b7f4e487b7100000000000000000000000000000000000000000000000000000000600052602260045260246000fd5b6000601f19601f8301169050919050565b6110ab81610ec6565b81146110b657600080fd5b50565b6110c281610ed8565b81146110cd57600080fd5b50565b6110d981610f04565b81146110e457600080fd5b5056fea264697066735822122071ca8a97b918165a43b8c44e3edf849986d5dc286637a050e0c88648faf1d5e464736f6c63430008000033",
  "immutableReferences": {},
  "source": "pragma solidity ^0.8.0;\nimport './RWD.sol';\nimport './Tether.sol';\n\ncontract DecentralBank {\n    address public owner;\n    string public name=\"Decentral Bank\";\n    Tether public tether;\n    RWD public rwd;\n\n    address[] public stakers;\n\n    mapping(address => uint) public stakingBalance;\n    mapping(address => bool) public hasStaked;\n    mapping(address => bool) public isStaked;\n\n    constructor(RWD _rwd, Tether _tether){\n        rwd = _rwd;\n        tether = _tether;\n        owner = msg.sender;\n    }\n\n    function depositTokens(uint _amount) public{\n        require(_amount > 0, 'amount cannot be 0');\n\n        tether.transferFrom(msg.sender, address(this), _amount);\n        stakingBalance[msg.sender]=stakingBalance[msg.sender]+_amount;\n\n        if(!hasStaked[msg.sender]){\n            stakers.push(msg.sender);\n        }\n\n        isStaked[msg.sender]=true;\n        hasStaked[msg.sender]=true;\n    }\n\n    function unstakeTokens() public {\n        uint balance = stakingBalance[msg.sender];\n        require(balance > 0,'staking balance cant be less then zero');\n        tether.transfer(msg.sender, balance);\n\n        stakingBalance[msg.sender]=0;\n        isStaked[msg.sender]=false;\n    }\n\n    function issueTokens() public {\n        require(msg.sender == owner,'Caller must be the owner');\n\n        for(uint i=0;i<stakers.length;i++){\n            address recipient = stakers[i];\n            uint balance = stakingBalance[recipient]/9;\n            if(balance>0){\n                rwd.transfer(recipient, balance);\n            }\n        }\n    }\n}",
  "sourcePath": "/Users/anuragsingh/Documents/GitHub/reactjs/defi/contracts/DecentalBank.sol",
  "compiler": {
    "name": "solc",
    "version": "0.8.0+commit.c7dfd78e.Emscripten.clang"
  },
  "schemaVersion": "3.4.6",
  "updatedAt": "2024-12-31T12:40:41.191Z",
  "networkType": "ethereum",
  "devdoc": {
    "kind": "dev",
    "methods": {},
    "version": 1
  },
  "userdoc": {
    "kind": "user",
    "methods": {},
    "version": 1
  }
}